{
  "contractName": "identity",
  "abi": [
    {
      "anonymous": false,
      "inputs": [
        {
          "indexed": false,
          "name": "Name",
          "type": "string"
        },
        {
          "indexed": true,
          "name": "userAddress",
          "type": "address"
        },
        {
          "indexed": false,
          "name": "index",
          "type": "uint256"
        },
        {
          "indexed": false,
          "name": "userEmail",
          "type": "string"
        },
        {
          "indexed": false,
          "name": "userAge",
          "type": "uint256"
        },
        {
          "indexed": false,
          "name": "Password",
          "type": "string"
        },
        {
          "indexed": false,
          "name": "fingerprint",
          "type": "uint256"
        }
      ],
      "name": "LogNewUser",
      "type": "event",
      "signature": "0x73ea6a1c46b3567e08bc3c1f168b6da6bb952d778d2a4a3061792d62dfe1c83f"
    },
    {
      "anonymous": false,
      "inputs": [
        {
          "indexed": true,
          "name": "userAddress",
          "type": "address"
        },
        {
          "indexed": false,
          "name": "index",
          "type": "uint256"
        },
        {
          "indexed": false,
          "name": "userEmail",
          "type": "string"
        },
        {
          "indexed": false,
          "name": "userAge",
          "type": "uint256"
        }
      ],
      "name": "LogUpdateUser",
      "type": "event",
      "signature": "0xe0d03264c4e763e1dd9a479aefbd0cb19a8a9045c5629e6fe975e20310cf04b2"
    },
    {
      "constant": true,
      "inputs": [
        {
          "name": "userAddress",
          "type": "address"
        }
      ],
      "name": "isUser",
      "outputs": [
        {
          "name": "isIndeed",
          "type": "bool"
        }
      ],
      "payable": false,
      "stateMutability": "view",
      "type": "function",
      "signature": "0x4209fff1"
    },
    {
      "constant": false,
      "inputs": [
        {
          "name": "Name",
          "type": "string"
        },
        {
          "name": "userAddress",
          "type": "address"
        },
        {
          "name": "userEmail",
          "type": "string"
        },
        {
          "name": "userAge",
          "type": "uint256"
        },
        {
          "name": "Password",
          "type": "string"
        },
        {
          "name": "fingerprint",
          "type": "uint256"
        }
      ],
      "name": "insertUser",
      "outputs": [
        {
          "name": "index",
          "type": "uint256"
        }
      ],
      "payable": false,
      "stateMutability": "nonpayable",
      "type": "function",
      "signature": "0x14f595f8"
    },
    {
      "constant": true,
      "inputs": [
        {
          "name": "userAddress",
          "type": "address"
        }
      ],
      "name": "getUser",
      "outputs": [
        {
          "name": "userEmail",
          "type": "string"
        },
        {
          "name": "userAge",
          "type": "uint256"
        },
        {
          "name": "index",
          "type": "uint256"
        },
        {
          "name": "Name",
          "type": "string"
        },
        {
          "name": "Password",
          "type": "string"
        },
        {
          "name": "fingerprint",
          "type": "uint256"
        }
      ],
      "payable": false,
      "stateMutability": "view",
      "type": "function",
      "signature": "0x6f77926b"
    },
    {
      "constant": false,
      "inputs": [
        {
          "name": "userAddress",
          "type": "address"
        },
        {
          "name": "userEmail",
          "type": "string"
        }
      ],
      "name": "updateUserEmail",
      "outputs": [
        {
          "name": "success",
          "type": "bool"
        }
      ],
      "payable": false,
      "stateMutability": "nonpayable",
      "type": "function",
      "signature": "0x64319ae6"
    },
    {
      "constant": false,
      "inputs": [
        {
          "name": "userAddress",
          "type": "address"
        },
        {
          "name": "userAge",
          "type": "uint256"
        }
      ],
      "name": "updateUserAge",
      "outputs": [
        {
          "name": "success",
          "type": "bool"
        }
      ],
      "payable": false,
      "stateMutability": "nonpayable",
      "type": "function",
      "signature": "0x2e071db3"
    },
    {
      "constant": true,
      "inputs": [],
      "name": "getUserCount",
      "outputs": [
        {
          "name": "count",
          "type": "uint256"
        }
      ],
      "payable": false,
      "stateMutability": "view",
      "type": "function",
      "signature": "0xb5cb15f7"
    },
    {
      "constant": true,
      "inputs": [
        {
          "name": "index",
          "type": "uint256"
        }
      ],
      "name": "getUserAtIndex",
      "outputs": [
        {
          "name": "userAddress",
          "type": "address"
        }
      ],
      "payable": false,
      "stateMutability": "view",
      "type": "function",
      "signature": "0xffcc7bbf"
    }
  ],
  "bytecode": "0x608060405234801561001057600080fd5b50611331806100206000396000f3fe608060405260043610610083576000357c0100000000000000000000000000000000000000000000000000000000900463ffffffff16806314f595f8146100885780632e071db3146100c55780634209fff11461010257806364319ae61461013f5780636f77926b1461017c578063b5cb15f7146101be578063ffcc7bbf146101e9575b600080fd5b34801561009457600080fd5b506100af60048036036100aa9190810190610e2e565b610226565b6040516100bc9190611133565b60405180910390f35b3480156100d157600080fd5b506100ec60048036036100e79190810190610df2565b610524565b6040516100f9919061102c565b60405180910390f35b34801561010e57600080fd5b5061012960048036036101249190810190610d75565b61065e565b604051610136919061102c565b60405180910390f35b34801561014b57600080fd5b5061016660048036036101619190810190610d9e565b610727565b604051610173919061102c565b60405180910390f35b34801561018857600080fd5b506101a3600480360361019e9190810190610d75565b610872565b6040516101b5969594939291906110bd565b60405180910390f35b3480156101ca57600080fd5b506101d3610c02565b6040516101e09190611133565b60405180910390f35b3480156101f557600080fd5b50610210600480360361020b9190810190610eff565b610c0f565b60405161021d9190611011565b60405180910390f35b60006102318661065e565b15151561023d57600080fd5b846000808873ffffffffffffffffffffffffffffffffffffffff1673ffffffffffffffffffffffffffffffffffffffff1681526020019081526020016000206000019080519060200190610292929190610c52565b50836000808873ffffffffffffffffffffffffffffffffffffffff1673ffffffffffffffffffffffffffffffffffffffff168152602001908152602001600020600101819055506001808790806001815401808255809150509060018203906000526020600020016000909192909190916101000a81548173ffffffffffffffffffffffffffffffffffffffff021916908373ffffffffffffffffffffffffffffffffffffffff160217905550036000808873ffffffffffffffffffffffffffffffffffffffff1673ffffffffffffffffffffffffffffffffffffffff16815260200190815260200160002060020181905550866000808873ffffffffffffffffffffffffffffffffffffffff1673ffffffffffffffffffffffffffffffffffffffff16815260200190815260200160002060050190805190602001906103da929190610c52565b50826000808873ffffffffffffffffffffffffffffffffffffffff1673ffffffffffffffffffffffffffffffffffffffff1681526020019081526020016000206003019080519060200190610430929190610c52565b50816000808873ffffffffffffffffffffffffffffffffffffffff1673ffffffffffffffffffffffffffffffffffffffff168152602001908152602001600020600401819055508573ffffffffffffffffffffffffffffffffffffffff167f73ea6a1c46b3567e08bc3c1f168b6da6bb952d778d2a4a3061792d62dfe1c83f886000808a73ffffffffffffffffffffffffffffffffffffffff1673ffffffffffffffffffffffffffffffffffffffff168152602001908152602001600020600201548888888860405161050896959493929190611047565b60405180910390a2600180805490500390509695505050505050565b600061052f8361065e565b15151561053b57600080fd5b816000808573ffffffffffffffffffffffffffffffffffffffff1673ffffffffffffffffffffffffffffffffffffffff168152602001908152602001600020600101819055508273ffffffffffffffffffffffffffffffffffffffff167fe0d03264c4e763e1dd9a479aefbd0cb19a8a9045c5629e6fe975e20310cf04b26000808673ffffffffffffffffffffffffffffffffffffffff1673ffffffffffffffffffffffffffffffffffffffff168152602001908152602001600020600201546000808773ffffffffffffffffffffffffffffffffffffffff1673ffffffffffffffffffffffffffffffffffffffff1681526020019081526020016000206000018560405161064c9392919061118c565b60405180910390a26001905092915050565b60008060018054905014156106765760009050610722565b8173ffffffffffffffffffffffffffffffffffffffff1660016000808573ffffffffffffffffffffffffffffffffffffffff1673ffffffffffffffffffffffffffffffffffffffff168152602001908152602001600020600201548154811015156106dd57fe5b9060005260206000200160009054906101000a900473ffffffffffffffffffffffffffffffffffffffff1673ffffffffffffffffffffffffffffffffffffffff161490505b919050565b60006107328361065e565b15151561073e57600080fd5b816000808573ffffffffffffffffffffffffffffffffffffffff1673ffffffffffffffffffffffffffffffffffffffff1681526020019081526020016000206000019080519060200190610793929190610c52565b508273ffffffffffffffffffffffffffffffffffffffff167fe0d03264c4e763e1dd9a479aefbd0cb19a8a9045c5629e6fe975e20310cf04b26000808673ffffffffffffffffffffffffffffffffffffffff1673ffffffffffffffffffffffffffffffffffffffff16815260200190815260200160002060020154846000808873ffffffffffffffffffffffffffffffffffffffff1673ffffffffffffffffffffffffffffffffffffffff168152602001908152602001600020600101546040516108609392919061114e565b60405180910390a26001905092915050565b606060008060608060006108858761065e565b151561089057600080fd5b6000808873ffffffffffffffffffffffffffffffffffffffff1673ffffffffffffffffffffffffffffffffffffffff1681526020019081526020016000206000016000808973ffffffffffffffffffffffffffffffffffffffff1673ffffffffffffffffffffffffffffffffffffffff168152602001908152602001600020600101546000808a73ffffffffffffffffffffffffffffffffffffffff1673ffffffffffffffffffffffffffffffffffffffff168152602001908152602001600020600201546000808b73ffffffffffffffffffffffffffffffffffffffff1673ffffffffffffffffffffffffffffffffffffffff1681526020019081526020016000206005016000808c73ffffffffffffffffffffffffffffffffffffffff1673ffffffffffffffffffffffffffffffffffffffff1681526020019081526020016000206003016000808d73ffffffffffffffffffffffffffffffffffffffff1673ffffffffffffffffffffffffffffffffffffffff16815260200190815260200160002060040154858054600181600116156101000203166002900480601f016020809104026020016040519081016040528092919081815260200182805460018160011615610100020316600290048015610aae5780601f10610a8357610100808354040283529160200191610aae565b820191906000526020600020905b815481529060010190602001808311610a9157829003601f168201915b50505050509550828054600181600116156101000203166002900480601f016020809104026020016040519081016040528092919081815260200182805460018160011615610100020316600290048015610b4a5780601f10610b1f57610100808354040283529160200191610b4a565b820191906000526020600020905b815481529060010190602001808311610b2d57829003601f168201915b50505050509250818054600181600116156101000203166002900480601f016020809104026020016040519081016040528092919081815260200182805460018160011615610100020316600290048015610be65780601f10610bbb57610100808354040283529160200191610be6565b820191906000526020600020905b815481529060010190602001808311610bc957829003601f168201915b5050505050915095509550955095509550955091939550919395565b6000600180549050905090565b6000600182815481101515610c2057fe5b9060005260206000200160009054906101000a900473ffffffffffffffffffffffffffffffffffffffff169050919050565b828054600181600116156101000203166002900490600052602060002090601f016020900481019282601f10610c9357805160ff1916838001178555610cc1565b82800160010185558215610cc1579182015b82811115610cc0578251825591602001919060010190610ca5565b5b509050610cce9190610cd2565b5090565b610cf491905b80821115610cf0576000816000905550600101610cd8565b5090565b90565b6000610d038235611288565b905092915050565b600082601f8301121515610d1e57600080fd5b8135610d31610d2c826111f7565b6111ca565b91508082526020830160208301858383011115610d4d57600080fd5b610d588382846112a4565b50505092915050565b6000610d6d823561129a565b905092915050565b600060208284031215610d8757600080fd5b6000610d9584828501610cf7565b91505092915050565b60008060408385031215610db157600080fd5b6000610dbf85828601610cf7565b925050602083013567ffffffffffffffff811115610ddc57600080fd5b610de885828601610d0b565b9150509250929050565b60008060408385031215610e0557600080fd5b6000610e1385828601610cf7565b9250506020610e2485828601610d61565b9150509250929050565b60008060008060008060c08789031215610e4757600080fd5b600087013567ffffffffffffffff811115610e6157600080fd5b610e6d89828a01610d0b565b9650506020610e7e89828a01610cf7565b955050604087013567ffffffffffffffff811115610e9b57600080fd5b610ea789828a01610d0b565b9450506060610eb889828a01610d61565b935050608087013567ffffffffffffffff811115610ed557600080fd5b610ee189828a01610d0b565b92505060a0610ef289828a01610d61565b9150509295509295509295565b600060208284031215610f1157600080fd5b6000610f1f84828501610d61565b91505092915050565b610f3181611240565b82525050565b610f4081611252565b82525050565b6000610f5182611235565b808452610f658160208601602086016112b3565b610f6e816112e6565b602085010191505092915050565b600081546001811660008114610f995760018114610fb957610ffa565b607f600283041680865260ff198316602087015260408601935050610ffa565b60028204808652602086019550610fcf85611223565b60005b82811015610ff157815481890152600182019150602081019050610fd2565b80880195505050505b505092915050565b61100b8161127e565b82525050565b60006020820190506110266000830184610f28565b92915050565b60006020820190506110416000830184610f37565b92915050565b600060c08201905081810360008301526110618189610f46565b90506110706020830188611002565b81810360408301526110828187610f46565b90506110916060830186611002565b81810360808301526110a38185610f46565b90506110b260a0830184611002565b979650505050505050565b600060c08201905081810360008301526110d78189610f46565b90506110e66020830188611002565b6110f36040830187611002565b81810360608301526111058186610f46565b905081810360808301526111198185610f46565b905061112860a0830184611002565b979650505050505050565b60006020820190506111486000830184611002565b92915050565b60006060820190506111636000830186611002565b81810360208301526111758185610f46565b90506111846040830184611002565b949350505050565b60006060820190506111a16000830186611002565b81810360208301526111b38185610f7c565b90506111c26040830184611002565b949350505050565b6000604051905081810181811067ffffffffffffffff821117156111ed57600080fd5b8060405250919050565b600067ffffffffffffffff82111561120e57600080fd5b601f19601f8301169050602081019050919050565b60008160005260206000209050919050565b600081519050919050565b600061124b8261125e565b9050919050565b60008115159050919050565b600073ffffffffffffffffffffffffffffffffffffffff82169050919050565b6000819050919050565b60006112938261125e565b9050919050565b6000819050919050565b82818337600083830152505050565b60005b838110156112d15780820151818401526020810190506112b6565b838111156112e0576000848401525b50505050565b6000601f19601f830116905091905056fea265627a7a72305820a854d3165d8bf230dff52fd0a31fe96987e37b42ca17b569042cfabd4506dd346c6578706572696d656e74616cf50037",
  "source": "pragma solidity ^0.5.0;\npragma experimental ABIEncoderV2;\n\ncontract identity {\n\n  struct UserStruct {\n    string userEmail;\n    uint userAge;\n    uint index;\n    string Password;\n    uint fingerprint;\n    string Name;\n\n  }\n  \n  mapping(address => UserStruct) private userStructs;\n  address[] private userIndex;\n\n  event LogNewUser   (string Name,address indexed userAddress, uint index, string  userEmail, uint userAge, string Password, uint fingerprint);\n  event LogUpdateUser(address indexed userAddress, uint index, string userEmail, uint userAge);\n  \n  function isUser(address userAddress)\n    public \n    view\n    returns(bool isIndeed) \n  {\n    if(userIndex.length == 0) return false;\n    return (userIndex[userStructs[userAddress].index] == userAddress);\n  }\n\n  function insertUser( string memory Name,\n    address userAddress, \n    string memory userEmail, \n    uint    userAge, string memory Password, uint fingerprint) \n    public\n    returns(uint index)\n  {\n    require(!isUser(userAddress)); \n    userStructs[userAddress].userEmail = userEmail;\n    userStructs[userAddress].userAge   = userAge;\n    userStructs[userAddress].index     = userIndex.push(userAddress)-1;\n    userStructs[userAddress].Name = Name;\n    userStructs[userAddress].Password = Password;\n    userStructs[userAddress].fingerprint = fingerprint;\n\n\n    emit LogNewUser(\n        Name,\n        userAddress, \n        userStructs[userAddress].index, \n        userEmail, \n        userAge,\n        Password,\n        fingerprint);\n    return userIndex.length-1;\n  }\n  \n  function getUser(address userAddress)\n    public \n    view\n    returns(string memory userEmail, uint userAge, uint index, string memory Name, string memory Password, uint fingerprint)\n  {\n    require(isUser(userAddress)); \n    return(\n      userStructs[userAddress].userEmail, \n      userStructs[userAddress].userAge, \n      userStructs[userAddress].index,\n      userStructs[userAddress].Name,\n      userStructs[userAddress].Password,\n      userStructs[userAddress].fingerprint);\n  } \n  \n  function updateUserEmail(address userAddress, string memory userEmail) \n    public\n    returns(bool success) \n  {\n    require(!isUser(userAddress)); \n    userStructs[userAddress].userEmail = userEmail;\n    emit LogUpdateUser(\n      userAddress, \n      userStructs[userAddress].index,\n      userEmail, \n      userStructs[userAddress].userAge);\n    return true;\n  }\n  \n  function updateUserAge(address userAddress, uint userAge) \n    public\n    returns(bool success) \n  {\n    require(!isUser(userAddress)); \n    userStructs[userAddress].userAge = userAge;\n    emit LogUpdateUser(\n      userAddress, \n      userStructs[userAddress].index,\n      userStructs[userAddress].userEmail, \n      userAge);\n    return true;\n  }\n\n  function getUserCount() \n    public\n    view\n    returns(uint count)\n  {\n    return userIndex.length;\n  }\n\n  function getUserAtIndex(uint index)\n    public\n    view\n    returns(address userAddress)\n  {\n    return userIndex[index];\n  }\n\n \n\n}\n\n",
  "sourcePath": "/home/achsah/Documents/Identity/contracts/identity.sol",
  "compiler": {
    "name": "solc",
    "version": "0.5.0+commit.1d4f565a.Emscripten.clang"
  },
  "schemaVersion": "3.0.6",
  "updatedAt": "2019-05-23T20:37:39.858Z",
  "devdoc": {
    "methods": {}
  },
  "userdoc": {
    "methods": {}
  }
}